{
  "contractName": "AirDropToken",
  "abi": [
    {
      "inputs": [],
      "payable": false,
      "stateMutability": "nonpayable",
      "type": "constructor"
    },
    {
      "anonymous": false,
      "inputs": [
        {
          "indexed": false,
          "internalType": "address",
          "name": "_tokenAddress",
          "type": "address"
        },
        {
          "indexed": false,
          "internalType": "address",
          "name": "_airdropper",
          "type": "address"
        },
        {
          "indexed": false,
          "internalType": "uint256",
          "name": "_totalTokensToDistribute",
          "type": "uint256"
        },
        {
          "indexed": false,
          "internalType": "uint256",
          "name": "creationDate",
          "type": "uint256"
        },
        {
          "indexed": false,
          "internalType": "uint256",
          "name": "_expirationDate",
          "type": "uint256"
        }
      ],
      "name": "E_AirdropSubmitted",
      "type": "event"
    },
    {
      "anonymous": false,
      "inputs": [
        {
          "indexed": false,
          "internalType": "address",
          "name": "_userAddress",
          "type": "address"
        },
        {
          "indexed": false,
          "internalType": "uint256",
          "name": "_signupDate",
          "type": "uint256"
        }
      ],
      "name": "E_Signup",
      "type": "event"
    },
    {
      "anonymous": false,
      "inputs": [
        {
          "indexed": false,
          "internalType": "address",
          "name": "_tokenAddress",
          "type": "address"
        },
        {
          "indexed": false,
          "internalType": "address",
          "name": "_userAddress",
          "type": "address"
        },
        {
          "indexed": false,
          "internalType": "uint256",
          "name": "_tokensWithdrawn",
          "type": "uint256"
        },
        {
          "indexed": false,
          "internalType": "uint256",
          "name": "_withdrawalDate",
          "type": "uint256"
        }
      ],
      "name": "E_TokensWithdrawn",
      "type": "event"
    },
    {
      "constant": true,
      "inputs": [
        {
          "internalType": "address",
          "name": "",
          "type": "address"
        },
        {
          "internalType": "uint256",
          "name": "",
          "type": "uint256"
        }
      ],
      "name": "airdroppedTokens",
      "outputs": [
        {
          "internalType": "address",
          "name": "tokenAddress",
          "type": "address"
        },
        {
          "internalType": "uint256",
          "name": "airdropAddressID",
          "type": "uint256"
        },
        {
          "internalType": "address",
          "name": "tokenOwner",
          "type": "address"
        },
        {
          "internalType": "uint256",
          "name": "airdropDate",
          "type": "uint256"
        },
        {
          "internalType": "uint256",
          "name": "airdropExpirationDate",
          "type": "uint256"
        },
        {
          "internalType": "uint256",
          "name": "tokenBalance",
          "type": "uint256"
        },
        {
          "internalType": "uint256",
          "name": "totalDropped",
          "type": "uint256"
        },
        {
          "internalType": "uint256",
          "name": "usersAtDate",
          "type": "uint256"
        }
      ],
      "payable": false,
      "stateMutability": "view",
      "type": "function"
    },
    {
      "constant": true,
      "inputs": [
        {
          "internalType": "address",
          "name": "",
          "type": "address"
        }
      ],
      "name": "airdropperBlacklist",
      "outputs": [
        {
          "internalType": "bool",
          "name": "",
          "type": "bool"
        }
      ],
      "payable": false,
      "stateMutability": "view",
      "type": "function"
    },
    {
      "constant": true,
      "inputs": [
        {
          "internalType": "uint256",
          "name": "",
          "type": "uint256"
        }
      ],
      "name": "airdrops",
      "outputs": [
        {
          "internalType": "address",
          "name": "tokenAddress",
          "type": "address"
        },
        {
          "internalType": "uint256",
          "name": "airdropAddressID",
          "type": "uint256"
        }
      ],
      "payable": false,
      "stateMutability": "view",
      "type": "function"
    },
    {
      "constant": true,
      "inputs": [],
      "name": "owner",
      "outputs": [
        {
          "internalType": "address",
          "name": "",
          "type": "address"
        }
      ],
      "payable": false,
      "stateMutability": "view",
      "type": "function"
    },
    {
      "constant": true,
      "inputs": [],
      "name": "ownersCut",
      "outputs": [
        {
          "internalType": "uint256",
          "name": "",
          "type": "uint256"
        }
      ],
      "payable": false,
      "stateMutability": "view",
      "type": "function"
    },
    {
      "constant": true,
      "inputs": [],
      "name": "paused",
      "outputs": [
        {
          "internalType": "bool",
          "name": "",
          "type": "bool"
        }
      ],
      "payable": false,
      "stateMutability": "view",
      "type": "function"
    },
    {
      "constant": true,
      "inputs": [
        {
          "internalType": "address",
          "name": "",
          "type": "address"
        }
      ],
      "name": "signups",
      "outputs": [
        {
          "internalType": "address",
          "name": "userAddress",
          "type": "address"
        },
        {
          "internalType": "uint256",
          "name": "signupDate",
          "type": "uint256"
        }
      ],
      "payable": false,
      "stateMutability": "view",
      "type": "function"
    },
    {
      "constant": true,
      "inputs": [
        {
          "internalType": "address",
          "name": "",
          "type": "address"
        }
      ],
      "name": "tokenBlacklist",
      "outputs": [
        {
          "internalType": "bool",
          "name": "",
          "type": "bool"
        }
      ],
      "payable": false,
      "stateMutability": "view",
      "type": "function"
    },
    {
      "constant": true,
      "inputs": [
        {
          "internalType": "address",
          "name": "",
          "type": "address"
        }
      ],
      "name": "tokenWhitelist",
      "outputs": [
        {
          "internalType": "bool",
          "name": "",
          "type": "bool"
        }
      ],
      "payable": false,
      "stateMutability": "view",
      "type": "function"
    },
    {
      "constant": true,
      "inputs": [],
      "name": "userSignupCount",
      "outputs": [
        {
          "internalType": "uint256",
          "name": "",
          "type": "uint256"
        }
      ],
      "payable": false,
      "stateMutability": "view",
      "type": "function"
    },
    {
      "constant": false,
      "inputs": [
        {
          "internalType": "bool",
          "name": "_isPaused",
          "type": "bool"
        }
      ],
      "name": "setPaused",
      "outputs": [],
      "payable": false,
      "stateMutability": "nonpayable",
      "type": "function"
    },
    {
      "constant": false,
      "inputs": [
        {
          "internalType": "address",
          "name": "_admin",
          "type": "address"
        },
        {
          "internalType": "bool",
          "name": "isAdmin",
          "type": "bool"
        }
      ],
      "name": "setAdmin",
      "outputs": [],
      "payable": false,
      "stateMutability": "nonpayable",
      "type": "function"
    },
    {
      "constant": false,
      "inputs": [
        {
          "internalType": "address",
          "name": "_airdropper",
          "type": "address"
        },
        {
          "internalType": "address",
          "name": "_tokenAddress",
          "type": "address"
        }
      ],
      "name": "removeFromBlacklist",
      "outputs": [],
      "payable": false,
      "stateMutability": "nonpayable",
      "type": "function"
    },
    {
      "constant": false,
      "inputs": [
        {
          "internalType": "address",
          "name": "_airdropper",
          "type": "address"
        },
        {
          "internalType": "address",
          "name": "_tokenAddress",
          "type": "address"
        }
      ],
      "name": "approveSubmission",
      "outputs": [],
      "payable": false,
      "stateMutability": "nonpayable",
      "type": "function"
    },
    {
      "constant": false,
      "inputs": [
        {
          "internalType": "address",
          "name": "_airdropper",
          "type": "address"
        },
        {
          "internalType": "address",
          "name": "_tokenAddress",
          "type": "address"
        }
      ],
      "name": "revokeSubmission",
      "outputs": [],
      "payable": false,
      "stateMutability": "nonpayable",
      "type": "function"
    },
    {
      "constant": false,
      "inputs": [
        {
          "internalType": "address",
          "name": "_user",
          "type": "address"
        }
      ],
      "name": "signupUsersManually",
      "outputs": [],
      "payable": false,
      "stateMutability": "nonpayable",
      "type": "function"
    },
    {
      "constant": false,
      "inputs": [
        {
          "internalType": "address",
          "name": "_tokenAddress",
          "type": "address"
        },
        {
          "internalType": "uint256",
          "name": "_totalTokensToDistribute",
          "type": "uint256"
        },
        {
          "internalType": "uint256",
          "name": "_expirationTime",
          "type": "uint256"
        }
      ],
      "name": "airdropTokens",
      "outputs": [],
      "payable": false,
      "stateMutability": "nonpayable",
      "type": "function"
    },
    {
      "constant": false,
      "inputs": [
        {
          "internalType": "address",
          "name": "_tokenAddress",
          "type": "address"
        }
      ],
      "name": "returnTokensToAirdropper",
      "outputs": [],
      "payable": false,
      "stateMutability": "nonpayable",
      "type": "function"
    },
    {
      "constant": false,
      "inputs": [],
      "name": "signUpForAirdrops",
      "outputs": [],
      "payable": false,
      "stateMutability": "nonpayable",
      "type": "function"
    },
    {
      "constant": false,
      "inputs": [],
      "name": "quitFromAirdrops",
      "outputs": [],
      "payable": false,
      "stateMutability": "nonpayable",
      "type": "function"
    },
    {
      "constant": true,
      "inputs": [
        {
          "internalType": "address",
          "name": "_tokenAddress",
          "type": "address"
        }
      ],
      "name": "getTokensAvailableToMe",
      "outputs": [
        {
          "internalType": "uint256",
          "name": "",
          "type": "uint256"
        }
      ],
      "payable": false,
      "stateMutability": "view",
      "type": "function"
    },
    {
      "constant": false,
      "inputs": [
        {
          "internalType": "address",
          "name": "_tokenAddress",
          "type": "address"
        }
      ],
      "name": "withdrawTokens",
      "outputs": [],
      "payable": false,
      "stateMutability": "nonpayable",
      "type": "function"
    },
    {
      "constant": true,
      "inputs": [],
      "name": "airdropsCount",
      "outputs": [
        {
          "internalType": "uint256",
          "name": "",
          "type": "uint256"
        }
      ],
      "payable": false,
      "stateMutability": "view",
      "type": "function"
    },
    {
      "constant": true,
      "inputs": [],
      "name": "getAddress",
      "outputs": [
        {
          "internalType": "address",
          "name": "",
          "type": "address"
        }
      ],
      "payable": false,
      "stateMutability": "view",
      "type": "function"
    },
    {
      "constant": true,
      "inputs": [
        {
          "internalType": "address",
          "name": "_tokenAddress",
          "type": "address"
        },
        {
          "internalType": "uint256",
          "name": "_id",
          "type": "uint256"
        }
      ],
      "name": "airdropHasExpired",
      "outputs": [
        {
          "internalType": "bool",
          "name": "",
          "type": "bool"
        }
      ],
      "payable": false,
      "stateMutability": "view",
      "type": "function"
    }
  ],
  "bytecode": "0x6080604052600260015560006005556000600760006101000a81548160ff02191690831515021790555034801561003557600080fd5b50336000806101000a81548173ffffffffffffffffffffffffffffffffffffffff021916908373ffffffffffffffffffffffffffffffffffffffff160217905550612e46806100856000396000f3fe608060405234801561001057600080fd5b50600436106101735760003560e01c8063753d7563116100de578063c6705a0011610097578063d5b4040611610071578063d5b4040614610893578063d96c09911461089d578063e57e31fa146108a7578063e8fcf27a1461090b57610173565b8063c6705a00146107cd578063ce3174ca14610811578063d0bb1d401461087557610173565b8063753d7563146105b35780638da5cb5b1461060f5780639d8374b4146106595780639fa45102146106bd578063c3a83aab14610719578063c4f3e4d81461077157610173565b80634b0bddd2116101305780634b0bddd214610323578063552fee9d146103735780635c975abb146103cb5780635e7d6fd0146103ed57806360db5082146104535780636330251d146104c857610173565b80630f5ee1381461017857806316c38b3c1461019657806317a5a6ee146101c6578063212c3fce1461025157806338cc48311461029557806349df728c146102df575b600080fd5b610180610929565b6040518082815260200191505060405180910390f35b6101c4600480360360208110156101ac57600080fd5b8101908080351515906020019092919050505061092f565b005b610208600480360360208110156101dc57600080fd5b81019080803573ffffffffffffffffffffffffffffffffffffffff1690602001909291905050506109a5565b604051808373ffffffffffffffffffffffffffffffffffffffff1673ffffffffffffffffffffffffffffffffffffffff1681526020018281526020019250505060405180910390f35b6102936004803603602081101561026757600080fd5b81019080803573ffffffffffffffffffffffffffffffffffffffff1690602001909291905050506109e9565b005b61029d610d26565b604051808273ffffffffffffffffffffffffffffffffffffffff1673ffffffffffffffffffffffffffffffffffffffff16815260200191505060405180910390f35b610321600480360360208110156102f557600080fd5b81019080803573ffffffffffffffffffffffffffffffffffffffff169060200190929190505050610d2e565b005b6103716004803603604081101561033957600080fd5b81019080803573ffffffffffffffffffffffffffffffffffffffff1690602001909291908035151590602001909291905050506111ad565b005b6103c96004803603606081101561038957600080fd5b81019080803573ffffffffffffffffffffffffffffffffffffffff1690602001909291908035906020019092919080359060200190929190505050611261565b005b6103d3611a9e565b604051808215151515815260200191505060405180910390f35b6104396004803603604081101561040357600080fd5b81019080803573ffffffffffffffffffffffffffffffffffffffff16906020019092919080359060200190929190505050611ab1565b604051808215151515815260200191505060405180910390f35b61047f6004803603602081101561046957600080fd5b8101908080359060200190929190505050611b1e565b604051808373ffffffffffffffffffffffffffffffffffffffff1673ffffffffffffffffffffffffffffffffffffffff1681526020018281526020019250505060405180910390f35b610514600480360360408110156104de57600080fd5b81019080803573ffffffffffffffffffffffffffffffffffffffff16906020019092919080359060200190929190505050611b6f565b604051808973ffffffffffffffffffffffffffffffffffffffff1673ffffffffffffffffffffffffffffffffffffffff1681526020018881526020018773ffffffffffffffffffffffffffffffffffffffff1673ffffffffffffffffffffffffffffffffffffffff1681526020018681526020018581526020018481526020018381526020018281526020019850505050505050505060405180910390f35b6105f5600480360360208110156105c957600080fd5b81019080803573ffffffffffffffffffffffffffffffffffffffff169060200190929190505050611c11565b604051808215151515815260200191505060405180910390f35b610617611c31565b604051808273ffffffffffffffffffffffffffffffffffffffff1673ffffffffffffffffffffffffffffffffffffffff16815260200191505060405180910390f35b6106bb6004803603604081101561066f57600080fd5b81019080803573ffffffffffffffffffffffffffffffffffffffff169060200190929190803573ffffffffffffffffffffffffffffffffffffffff169060200190929190505050611c56565b005b6106ff600480360360208110156106d357600080fd5b81019080803573ffffffffffffffffffffffffffffffffffffffff169060200190929190505050611dcd565b604051808215151515815260200191505060405180910390f35b61075b6004803603602081101561072f57600080fd5b81019080803573ffffffffffffffffffffffffffffffffffffffff169060200190929190505050611ded565b6040518082815260200191505060405180910390f35b6107b36004803603602081101561078757600080fd5b81019080803573ffffffffffffffffffffffffffffffffffffffff169060200190929190505050612068565b604051808215151515815260200191505060405180910390f35b61080f600480360360208110156107e357600080fd5b81019080803573ffffffffffffffffffffffffffffffffffffffff169060200190929190505050612088565b005b6108736004803603604081101561082757600080fd5b81019080803573ffffffffffffffffffffffffffffffffffffffff169060200190929190803573ffffffffffffffffffffffffffffffffffffffff16906020019092919050505061230e565b005b61087d612531565b6040518082815260200191505060405180910390f35b61089b61253e565b005b6108a5612730565b005b610909600480360360408110156108bd57600080fd5b81019080803573ffffffffffffffffffffffffffffffffffffffff169060200190929190803573ffffffffffffffffffffffffffffffffffffffff16906020019092919050505061286a565b005b610913612a21565b6040518082815260200191505060405180910390f35b60055481565b6000809054906101000a900473ffffffffffffffffffffffffffffffffffffffff1673ffffffffffffffffffffffffffffffffffffffff163373ffffffffffffffffffffffffffffffffffffffff161461098857600080fd5b80600760006101000a81548160ff02191690831515021790555050565b60046020528060005260406000206000915090508060000160009054906101000a900473ffffffffffffffffffffffffffffffffffffffff16908060010154905082565b600760009054906101000a900460ff1615610a0357600080fd5b600860008273ffffffffffffffffffffffffffffffffffffffff1673ffffffffffffffffffffffffffffffffffffffff16815260200190815260200160002060009054906101000a900460ff16610a5957600080fd5b6000620f42409050600080905060008090505b600260008573ffffffffffffffffffffffffffffffffffffffff1673ffffffffffffffffffffffffffffffffffffffff16815260200190815260200160002080549050811015610bae576000600260008673ffffffffffffffffffffffffffffffffffffffff1673ffffffffffffffffffffffffffffffffffffffff1681526020019081526020016000208281548110610b0257fe5b906000526020600020906008020190508060020160009054906101000a900473ffffffffffffffffffffffffffffffffffffffff1673ffffffffffffffffffffffffffffffffffffffff163373ffffffffffffffffffffffffffffffffffffffff16148015610b775750610b768583611ab1565b5b15610ba057610b93816005015484612a2790919063ffffffff16565b9250600081600501819055505b508080600101915050610a6c565b508173ffffffffffffffffffffffffffffffffffffffff1663a9059cbb33836040518363ffffffff1660e01b8152600401808373ffffffffffffffffffffffffffffffffffffffff1673ffffffffffffffffffffffffffffffffffffffff16815260200182815260200192505050602060405180830381600087803b158015610c3657600080fd5b505af1158015610c4a573d6000803e3d6000fd5b505050506040513d6020811015610c6057600080fd5b8101908080519060200190929190505050610c7a57600080fd5b7ffe9badacf7eaa58680fd6471ac86b878b10d64f20a9c3f14a91feece1757a93f83338342604051808573ffffffffffffffffffffffffffffffffffffffff1673ffffffffffffffffffffffffffffffffffffffff1681526020018473ffffffffffffffffffffffffffffffffffffffff1673ffffffffffffffffffffffffffffffffffffffff16815260200183815260200182815260200194505050505060405180910390a1505050565b600030905090565b600760009054906101000a900460ff1615610d4857600080fd5b600860008273ffffffffffffffffffffffffffffffffffffffff1673ffffffffffffffffffffffffffffffffffffffff16815260200190815260200160002060009054906101000a900460ff16610d9e57600080fd5b6000600460003373ffffffffffffffffffffffffffffffffffffffff1673ffffffffffffffffffffffffffffffffffffffff1681526020019081526020016000209050600073ffffffffffffffffffffffffffffffffffffffff168160000160009054906101000a900473ffffffffffffffffffffffffffffffffffffffff1673ffffffffffffffffffffffffffffffffffffffff161415610e3f57600080fd5b600080905060008090505b600260008573ffffffffffffffffffffffffffffffffffffffff1673ffffffffffffffffffffffffffffffffffffffff1681526020019081526020016000208054905081101561102c576000600260008673ffffffffffffffffffffffffffffffffffffffff1673ffffffffffffffffffffffffffffffffffffffff1681526020019081526020016000208281548110610ee057fe5b9060005260206000209060080201905060008460020160008773ffffffffffffffffffffffffffffffffffffffff1673ffffffffffffffffffffffffffffffffffffffff16815260200190815260200160002060008481526020019081526020016000205490508460010154826003015410158015610f63575081600401544211155b1561101d576000610f8583600701548460060154612aaf90919063ffffffff16565b90508082101561101b57808660020160008973ffffffffffffffffffffffffffffffffffffffff1673ffffffffffffffffffffffffffffffffffffffff168152602001908152602001600020600086815260200190815260200160002081905550610ffd818460050154612af990919063ffffffff16565b83600501819055506110188186612a2790919063ffffffff16565b94505b505b50508080600101915050610e4a565b506000620f424090508073ffffffffffffffffffffffffffffffffffffffff1663a9059cbb33846040518363ffffffff1660e01b8152600401808373ffffffffffffffffffffffffffffffffffffffff1673ffffffffffffffffffffffffffffffffffffffff16815260200182815260200192505050602060405180830381600087803b1580156110bc57600080fd5b505af11580156110d0573d6000803e3d6000fd5b505050506040513d60208110156110e657600080fd5b810190808051906020019092919050505061110057600080fd5b7ffe9badacf7eaa58680fd6471ac86b878b10d64f20a9c3f14a91feece1757a93f84338442604051808573ffffffffffffffffffffffffffffffffffffffff1673ffffffffffffffffffffffffffffffffffffffff1681526020018473ffffffffffffffffffffffffffffffffffffffff1673ffffffffffffffffffffffffffffffffffffffff16815260200183815260200182815260200194505050505060405180910390a150505050565b6000809054906101000a900473ffffffffffffffffffffffffffffffffffffffff1673ffffffffffffffffffffffffffffffffffffffff163373ffffffffffffffffffffffffffffffffffffffff161461120657600080fd5b80600660008473ffffffffffffffffffffffffffffffffffffffff1673ffffffffffffffffffffffffffffffffffffffff16815260200190815260200160002060006101000a81548160ff0219169083151502179055505050565b600760009054906101000a900460ff161561127b57600080fd5b600860008473ffffffffffffffffffffffffffffffffffffffff1673ffffffffffffffffffffffffffffffffffffffff16815260200190815260200160002060009054906101000a900460ff166112d157600080fd5b600a60003373ffffffffffffffffffffffffffffffffffffffff1673ffffffffffffffffffffffffffffffffffffffff16815260200190815260200160002060009054906101000a900460ff161561132857600080fd5b6000620f42409050828173ffffffffffffffffffffffffffffffffffffffff166370a08231336040518263ffffffff1660e01b8152600401808273ffffffffffffffffffffffffffffffffffffffff1673ffffffffffffffffffffffffffffffffffffffff16815260200191505060206040518083038186803b1580156113ae57600080fd5b505afa1580156113c2573d6000803e3d6000fd5b505050506040513d60208110156113d857600080fd5b810190808051906020019092919050505010156113f457600080fd5b61148d8173ffffffffffffffffffffffffffffffffffffffff1663313ce5676040518163ffffffff1660e01b815260040160206040518083038186803b15801561143d57600080fd5b505afa158015611451573d6000803e3d6000fd5b505050506040513d602081101561146757600080fd5b810190808051906020019092919050505060ff16600a0a84612b4390919063ffffffff16565b925060006114b960646114ab60015487612b4390919063ffffffff16565b612aaf90919063ffffffff16565b90506114ce8185612af990919063ffffffff16565b93506114d8612d4f565b60405180604001604052808773ffffffffffffffffffffffffffffffffffffffff168152602001600260008973ffffffffffffffffffffffffffffffffffffffff1673ffffffffffffffffffffffffffffffffffffffff16815260200190815260200160002080549050815250905061154f612d7f565b6040518061010001604052808873ffffffffffffffffffffffffffffffffffffffff168152602001600260008a73ffffffffffffffffffffffffffffffffffffffff1673ffffffffffffffffffffffffffffffffffffffff1681526020019081526020016000208054905081526020013373ffffffffffffffffffffffffffffffffffffffff16815260200142815260200186420181526020018781526020018781526020016005548152509050600260008873ffffffffffffffffffffffffffffffffffffffff1673ffffffffffffffffffffffffffffffffffffffff168152602001908152602001600020819080600181540180825580915050906001820390600052602060002090600802016000909192909190915060008201518160000160006101000a81548173ffffffffffffffffffffffffffffffffffffffff021916908373ffffffffffffffffffffffffffffffffffffffff1602179055506020820151816001015560408201518160020160006101000a81548173ffffffffffffffffffffffffffffffffffffffff021916908373ffffffffffffffffffffffffffffffffffffffff160217905550606082015181600301556080820151816004015560a0820151816005015560c0820151816006015560e082015181600701555050506003829080600181540180825580915050906001820390600052602060002090600202016000909192909190915060008201518160000160006101000a81548173ffffffffffffffffffffffffffffffffffffffff021916908373ffffffffffffffffffffffffffffffffffffffff160217905550602082015181600101555050508373ffffffffffffffffffffffffffffffffffffffff166323b872dd3330896040518463ffffffff1660e01b8152600401808473ffffffffffffffffffffffffffffffffffffffff1673ffffffffffffffffffffffffffffffffffffffff1681526020018373ffffffffffffffffffffffffffffffffffffffff1673ffffffffffffffffffffffffffffffffffffffff1681526020018281526020019350505050602060405180830381600087803b15801561187257600080fd5b505af1158015611886573d6000803e3d6000fd5b505050506040513d602081101561189c57600080fd5b81019080805190602001909291905050506118b657600080fd5b8373ffffffffffffffffffffffffffffffffffffffff166323b872dd336000809054906101000a900473ffffffffffffffffffffffffffffffffffffffff16866040518463ffffffff1660e01b8152600401808473ffffffffffffffffffffffffffffffffffffffff1673ffffffffffffffffffffffffffffffffffffffff1681526020018373ffffffffffffffffffffffffffffffffffffffff1673ffffffffffffffffffffffffffffffffffffffff1681526020018281526020019350505050602060405180830381600087803b15801561199257600080fd5b505af11580156119a6573d6000803e3d6000fd5b505050506040513d60208110156119bc57600080fd5b81019080805190602001909291905050506119d657600080fd5b7fbfd71fe20fdbeee3fd596b50d95fd43398dfbb921312da43589277effb44d6678782604001518360c0015184606001518560800151604051808673ffffffffffffffffffffffffffffffffffffffff1673ffffffffffffffffffffffffffffffffffffffff1681526020018573ffffffffffffffffffffffffffffffffffffffff1673ffffffffffffffffffffffffffffffffffffffff1681526020018481526020018381526020018281526020019550505050505060405180910390a150505050505050565b600760009054906101000a900460ff1681565b600080600260008573ffffffffffffffffffffffffffffffffffffffff1673ffffffffffffffffffffffffffffffffffffffff1681526020019081526020016000208381548110611afe57fe5b906000526020600020906008020190508060040154421191505092915050565b60038181548110611b2b57fe5b90600052602060002090600202016000915090508060000160009054906101000a900473ffffffffffffffffffffffffffffffffffffffff16908060010154905082565b60026020528160005260406000208181548110611b8857fe5b9060005260206000209060080201600091509150508060000160009054906101000a900473ffffffffffffffffffffffffffffffffffffffff16908060010154908060020160009054906101000a900473ffffffffffffffffffffffffffffffffffffffff16908060030154908060040154908060050154908060060154908060070154905088565b60086020528060005260406000206000915054906101000a900460ff1681565b6000809054906101000a900473ffffffffffffffffffffffffffffffffffffffff1681565b6000809054906101000a900473ffffffffffffffffffffffffffffffffffffffff1673ffffffffffffffffffffffffffffffffffffffff163373ffffffffffffffffffffffffffffffffffffffff1614611caf57600080fd5b600073ffffffffffffffffffffffffffffffffffffffff168273ffffffffffffffffffffffffffffffffffffffff1614611d3c576000600a60008473ffffffffffffffffffffffffffffffffffffffff1673ffffffffffffffffffffffffffffffffffffffff16815260200190815260200160002060006101000a81548160ff0219169083151502179055505b600073ffffffffffffffffffffffffffffffffffffffff168173ffffffffffffffffffffffffffffffffffffffff1614611dc9576000600960008373ffffffffffffffffffffffffffffffffffffffff1673ffffffffffffffffffffffffffffffffffffffff16815260200190815260200160002060006101000a81548160ff0219169083151502179055505b5050565b60096020528060005260406000206000915054906101000a900460ff1681565b6000600860008373ffffffffffffffffffffffffffffffffffffffff1673ffffffffffffffffffffffffffffffffffffffff16815260200190815260200160002060009054906101000a900460ff16611e4557600080fd5b6000600460003373ffffffffffffffffffffffffffffffffffffffff1673ffffffffffffffffffffffffffffffffffffffff1681526020019081526020016000209050600073ffffffffffffffffffffffffffffffffffffffff168160000160009054906101000a900473ffffffffffffffffffffffffffffffffffffffff1673ffffffffffffffffffffffffffffffffffffffff161415611ee657600080fd5b600080905060008090505b600260008673ffffffffffffffffffffffffffffffffffffffff1673ffffffffffffffffffffffffffffffffffffffff1681526020019081526020016000208054905081101561205d576000600260008773ffffffffffffffffffffffffffffffffffffffff1673ffffffffffffffffffffffffffffffffffffffff1681526020019081526020016000208281548110611f8757fe5b9060005260206000209060080201905060008460020160008873ffffffffffffffffffffffffffffffffffffffff1673ffffffffffffffffffffffffffffffffffffffff1681526020019081526020016000206000848152602001908152602001600020549050846001015482600301541015801561200a575081600401544211155b1561204e57600061202c83600701548460060154612aaf90919063ffffffff16565b90508082101561204c576120498186612a2790919063ffffffff16565b94505b505b50508080600101915050611ef1565b508092505050919050565b600a6020528060005260406000206000915054906101000a900460ff1681565b6000809054906101000a900473ffffffffffffffffffffffffffffffffffffffff1673ffffffffffffffffffffffffffffffffffffffff163373ffffffffffffffffffffffffffffffffffffffff16148061212c5750600660003373ffffffffffffffffffffffffffffffffffffffff1673ffffffffffffffffffffffffffffffffffffffff16815260200190815260200160002060009054906101000a900460ff165b61213557600080fd5b600073ffffffffffffffffffffffffffffffffffffffff16600460008373ffffffffffffffffffffffffffffffffffffffff1673ffffffffffffffffffffffffffffffffffffffff16815260200190815260200160002060000160009054906101000a900473ffffffffffffffffffffffffffffffffffffffff1673ffffffffffffffffffffffffffffffffffffffff16146121d057600080fd5b60405180604001604052808273ffffffffffffffffffffffffffffffffffffffff16815260200142815250600460008373ffffffffffffffffffffffffffffffffffffffff1673ffffffffffffffffffffffffffffffffffffffff16815260200190815260200160002060008201518160000160006101000a81548173ffffffffffffffffffffffffffffffffffffffff021916908373ffffffffffffffffffffffffffffffffffffffff160217905550602082015181600101559050506005600081548092919060010191905055507f53047ca9b22e6a3462502d4569e7650efca4d42747f536a942b778f9d56ddc983342604051808373ffffffffffffffffffffffffffffffffffffffff1673ffffffffffffffffffffffffffffffffffffffff1681526020018281526020019250505060405180910390a150565b6000809054906101000a900473ffffffffffffffffffffffffffffffffffffffff1673ffffffffffffffffffffffffffffffffffffffff163373ffffffffffffffffffffffffffffffffffffffff1614806123b25750600660003373ffffffffffffffffffffffffffffffffffffffff1673ffffffffffffffffffffffffffffffffffffffff16815260200190815260200160002060009054906101000a900460ff165b6123bb57600080fd5b600073ffffffffffffffffffffffffffffffffffffffff168173ffffffffffffffffffffffffffffffffffffffff16146124a0576000600860008373ffffffffffffffffffffffffffffffffffffffff1673ffffffffffffffffffffffffffffffffffffffff16815260200190815260200160002060006101000a81548160ff0219169083151502179055506001600960008373ffffffffffffffffffffffffffffffffffffffff1673ffffffffffffffffffffffffffffffffffffffff16815260200190815260200160002060006101000a81548160ff0219169083151502179055505b600073ffffffffffffffffffffffffffffffffffffffff168273ffffffffffffffffffffffffffffffffffffffff161461252d576001600a60008473ffffffffffffffffffffffffffffffffffffffff1673ffffffffffffffffffffffffffffffffffffffff16815260200190815260200160002060006101000a81548160ff0219169083151502179055505b5050565b6000600380549050905090565b600760009054906101000a900460ff161561255857600080fd5b600073ffffffffffffffffffffffffffffffffffffffff16600460003373ffffffffffffffffffffffffffffffffffffffff1673ffffffffffffffffffffffffffffffffffffffff16815260200190815260200160002060000160009054906101000a900473ffffffffffffffffffffffffffffffffffffffff1673ffffffffffffffffffffffffffffffffffffffff16146125f357600080fd5b60405180604001604052803373ffffffffffffffffffffffffffffffffffffffff16815260200142815250600460003373ffffffffffffffffffffffffffffffffffffffff1673ffffffffffffffffffffffffffffffffffffffff16815260200190815260200160002060008201518160000160006101000a81548173ffffffffffffffffffffffffffffffffffffffff021916908373ffffffffffffffffffffffffffffffffffffffff160217905550602082015181600101559050506005600081548092919060010191905055507f53047ca9b22e6a3462502d4569e7650efca4d42747f536a942b778f9d56ddc983342604051808373ffffffffffffffffffffffffffffffffffffffff1673ffffffffffffffffffffffffffffffffffffffff1681526020018281526020019250505060405180910390a1565b600760009054906101000a900460ff161561274a57600080fd5b3373ffffffffffffffffffffffffffffffffffffffff16600460003373ffffffffffffffffffffffffffffffffffffffff1673ffffffffffffffffffffffffffffffffffffffff16815260200190815260200160002060000160009054906101000a900473ffffffffffffffffffffffffffffffffffffffff1673ffffffffffffffffffffffffffffffffffffffff16146127e457600080fd5b600460003373ffffffffffffffffffffffffffffffffffffffff1673ffffffffffffffffffffffffffffffffffffffff168152602001908152602001600020600080820160006101000a81549073ffffffffffffffffffffffffffffffffffffffff02191690556001820160009055505060056000815480929190600190039190505550565b6000809054906101000a900473ffffffffffffffffffffffffffffffffffffffff1673ffffffffffffffffffffffffffffffffffffffff163373ffffffffffffffffffffffffffffffffffffffff16148061290e5750600660003373ffffffffffffffffffffffffffffffffffffffff1673ffffffffffffffffffffffffffffffffffffffff16815260200190815260200160002060009054906101000a900460ff165b61291757600080fd5b600a60008373ffffffffffffffffffffffffffffffffffffffff1673ffffffffffffffffffffffffffffffffffffffff16815260200190815260200160002060009054906101000a900460ff161561296e57600080fd5b600960008273ffffffffffffffffffffffffffffffffffffffff1673ffffffffffffffffffffffffffffffffffffffff16815260200190815260200160002060009054906101000a900460ff16156129c557600080fd5b6001600860008373ffffffffffffffffffffffffffffffffffffffff1673ffffffffffffffffffffffffffffffffffffffff16815260200190815260200160002060006101000a81548160ff0219169083151502179055505050565b60015481565b600080828401905083811015612aa5576040517f08c379a000000000000000000000000000000000000000000000000000000000815260040180806020018281038252601b8152602001807f536166654d6174683a206164646974696f6e206f766572666c6f77000000000081525060200191505060405180910390fd5b8091505092915050565b6000612af183836040518060400160405280601a81526020017f536166654d6174683a206469766973696f6e206279207a65726f000000000000815250612bc9565b905092915050565b6000612b3b83836040518060400160405280601e81526020017f536166654d6174683a207375627472616374696f6e206f766572666c6f770000815250612c8f565b905092915050565b600080831415612b565760009050612bc3565b6000828402905082848281612b6757fe5b0414612bbe576040517f08c379a0000000000000000000000000000000000000000000000000000000008152600401808060200182810382526021815260200180612df16021913960400191505060405180910390fd5b809150505b92915050565b60008083118290612c75576040517f08c379a00000000000000000000000000000000000000000000000000000000081526004018080602001828103825283818151815260200191508051906020019080838360005b83811015612c3a578082015181840152602081019050612c1f565b50505050905090810190601f168015612c675780820380516001836020036101000a031916815260200191505b509250505060405180910390fd5b506000838581612c8157fe5b049050809150509392505050565b6000838311158290612d3c576040517f08c379a00000000000000000000000000000000000000000000000000000000081526004018080602001828103825283818151815260200191508051906020019080838360005b83811015612d01578082015181840152602081019050612ce6565b50505050905090810190601f168015612d2e5780820380516001836020036101000a031916815260200191505b509250505060405180910390fd5b5060008385039050809150509392505050565b6040518060400160405280600073ffffffffffffffffffffffffffffffffffffffff168152602001600081525090565b604051806101000160405280600073ffffffffffffffffffffffffffffffffffffffff16815260200160008152602001600073ffffffffffffffffffffffffffffffffffffffff1681526020016000815260200160008152602001600081526020016000815260200160008152509056fe536166654d6174683a206d756c7469706c69636174696f6e206f766572666c6f77a265627a7a723158203a8c195e3c6ca550587f57fc53429041ae5222aad51ce7d0641a599d2b24926c64736f6c634300050c0032",
  "source": "pragma solidity >=0.4.21 <0.6.0;\nimport \"./AnasToken.sol\";\nimport \"./SafeMath.sol\";\n// Permissions\n//                               Admin      Airdropper       User\n// approve/ revoke submissions     x\n// pause / unpause                 x\n// signupUsersManually             x\n// airdropTokens                                x\n// returnTokensToAirdropper                     x\n// signUpForAirdrops                                          x\n// quitFromAirdrops                                           x\n// getTokensAvailableToMe                                     x\n// withdrawTokens                                             x\ncontract AirDropToken {\n\n using SafeMath for uint256;\n    // The owner / admin of the Airdrop Token\n    // In charge of accepting airdrop submissions\n    address public owner;\n\n    // How many tokens the owner keeps of each airdrop as transaction fee\n    uint public ownersCut = 2; // 2% commision in tokens\n\n    // Id of each airdrop (token address + id #)\n    struct TokenAirdropID {\n        address tokenAddress;\n        uint airdropAddressID; // The id of the airdrop within a token address\n    }\n\n    struct TokenAirdrop {\n        address tokenAddress;\n        uint airdropAddressID; // The id of the airdrop within a token address\n        address tokenOwner;\n        uint airdropDate; // The airdrop creation date\n        uint airdropExpirationDate; // When airdrop expires\n        uint tokenBalance; // Current balance\n        uint totalDropped; // Total to distribute\n        uint usersAtDate; // How many users were signed at airdrop date\n    }\n\n    struct User {\n        address userAddress;\n        uint signupDate; // Determines which airdrops the user has access to\n        // User -> Airdrop id# -> balance\n        mapping (address => mapping (uint => uint)) withdrawnBalances;\n    }\n\n    // Maps the tokens available to airdrop  contract. Keyed by token address\n    mapping (address => TokenAirdrop[]) public airdroppedTokens;\n    TokenAirdropID[] public airdrops;\n\n    // List of users that signed up\n    mapping (address => User) public signups;\n    uint public userSignupCount = 0;\n\n    // Admins with permission to accept submissions\n    mapping (address => bool) admins;\n\n    // Whether or not the contract is paused (in case of a problem is detected)\n    bool public paused = false;\n\n    // List of approved/rejected token/sender addresses\n    mapping (address => bool) public tokenWhitelist;\n    mapping (address => bool) public tokenBlacklist;\n    mapping (address => bool) public airdropperBlacklist;\n\n    //\n    // Modifiers\n    //\n\n    modifier onlyOwner {\n        require(msg.sender == owner);\n        _;\n    }\n\n    modifier onlyAdmin {\n        require(msg.sender == owner || admins[msg.sender]);\n        _;\n    }\n\n    modifier ifNotPaused {\n        require(!paused);\n        _;\n    }\n\n    //\n    // Events\n    //\n\n    event E_AirdropSubmitted(address _tokenAddress, address _airdropper,uint _totalTokensToDistribute,uint creationDate, uint _expirationDate);\n    event E_Signup(address _userAddress,uint _signupDate);\n    event E_TokensWithdrawn(address _tokenAddress,address _userAddress, uint _tokensWithdrawn, uint _withdrawalDate);\n\n    constructor() public {\n        owner = msg.sender;\n    }\n\n    /////////////////////\n    // Owner / Admin functions\n    /////////////////////\n\n    /**\n     * @dev pause or unpause the contract in case a problem is detected\n     */\n    function setPaused(bool _isPaused) public onlyOwner{\n        paused = _isPaused;\n    }\n\n    /**\n     * @dev allows owner to grant/revoke admin privileges to other accounts\n     * @param _admin is the account to be granted/revoked admin privileges\n     * @param isAdmin is whether or not to grant or revoke privileges.\n     */\n    function setAdmin(address _admin, bool isAdmin) public onlyOwner{\n        admins[_admin] = isAdmin;\n    }\n\n    /**\n     * @dev removes a token and/or account from the blacklist to allow\n     * them to submit a token again.\n     * @param _airdropper is the account to remove from blacklist\n     * @param _tokenAddress is the token address to remove from blacklist\n     */\n    function removeFromBlacklist(address _airdropper, address _tokenAddress) public onlyOwner {\n        if(_airdropper != address(0))\n            airdropperBlacklist[_airdropper] = false;\n\n        if(_tokenAddress != address(0))\n            tokenBlacklist[_tokenAddress] = false;\n    }\n\n    /**\n     * @dev approves a given token and account address to make it available for airdrop\n     * This is necessary to avoid malicious contracts to be added.\n     * @param _airdropper is the account to add to the whitelist\n     * @param _tokenAddress is the token address to add to the whitelist\n     */\n    function approveSubmission(address _airdropper, address _tokenAddress) public onlyAdmin {\n        require(!airdropperBlacklist[_airdropper]);\n        require(!tokenBlacklist[_tokenAddress]);\n\n        tokenWhitelist[_tokenAddress] = true;\n    }\n\n    /**\n     * @dev removes token and airdropper from whitelist.\n     * Also adds them to a blacklist to prevent further submissions of any\n     * To be used in case of an emgency where the owner failed to detect\n     * a problem with the address submitted.\n     * @param _airdropper is the account to add to the blacklist and remove from whitelist\n     * @param _tokenAddress is the token address to add to the blacklist and remove from whitelist\n     */\n    function revokeSubmission(address _airdropper, address _tokenAddress) public onlyAdmin {\n        if(_tokenAddress != address(0)){\n            tokenWhitelist[_tokenAddress] = false;\n            tokenBlacklist[_tokenAddress] = true;\n        }\n\n        if(_airdropper != address(0)){\n            airdropperBlacklist[_airdropper] = true;\n        }\n\n    }\n\n    /**\n     * @dev allows admins to add users to the list manually\n     * Use to add people who explicitely asked to be added...\n     */\n    function signupUsersManually(address _user) public onlyAdmin {\n        require(signups[_user].userAddress == address(0));\n        signups[_user] = User(_user,now);\n        userSignupCount++;\n\n       emit  E_Signup(msg.sender,now);\n    }\n\n\n    /////////////////////\n    // Airdropper functions\n    /////////////////////\n /**\n     * @dev Transfers tokens to contract and sets the Token Airdrop\n     * @notice Before calling this function, you must have given the Airdrop Central\n     * an allowance of the tokens to distribute.\n     * Call approve([this contract's address],_totalTokensToDistribute); on the AnasToken token cotnract first\n     * @param _tokenAddress is the address of the token\n     * @param _totalTokensToDistribute is the tokens that will be evenly distributed among all current users\n     * Enter the number of tokens (the function multiplies by the token decimals)\n     * @param _expirationTime is in how many seconds will the airdrop expire from now\n     * user should first know how many users are signed to know final approximate distribution\n     */\n\n    function airdropTokens(address _tokenAddress, uint _totalTokensToDistribute, uint _expirationTime) public ifNotPaused {\n        require(tokenWhitelist[_tokenAddress]);\n        require(!airdropperBlacklist[msg.sender]);\n\n        AnasToken token= AnasToken(1000000);\n        require(token.balanceOf(msg.sender) >= _totalTokensToDistribute);\n\n        //Multiply number entered by token decimals.\n        _totalTokensToDistribute = _totalTokensToDistribute.mul(10 ** uint256(token.decimals()));\n\n        // Calculate owner's tokens and tokens to airdrop\n        uint tokensForOwner = _totalTokensToDistribute.mul(ownersCut).div(100);\n        _totalTokensToDistribute = _totalTokensToDistribute.sub(tokensForOwner);\n\n        // Store the airdrop unique id in array (token address + id)\n        TokenAirdropID memory taid = TokenAirdropID(_tokenAddress,airdroppedTokens[_tokenAddress].length);\n        TokenAirdrop memory ta = TokenAirdrop(_tokenAddress,airdroppedTokens[_tokenAddress].length,msg.sender,now,now+_expirationTime,_totalTokensToDistribute,_totalTokensToDistribute,userSignupCount);\n        airdroppedTokens[_tokenAddress].push(ta);\n        airdrops.push(taid);\n\n        // Transfer the tokens\n        require(token.transferFrom(msg.sender,address(this),_totalTokensToDistribute));\n        require(token.transferFrom(msg.sender,owner,tokensForOwner));\n\n        emit E_AirdropSubmitted(_tokenAddress,ta.tokenOwner,ta.totalDropped,ta.airdropDate,ta.airdropExpirationDate);\n\n    }\n\n    /**\n     * @dev returns unclaimed tokens to the airdropper after the airdrop expires\n     * @param _tokenAddress is the address of the token\n     */\n    function returnTokensToAirdropper(address _tokenAddress) public ifNotPaused {\n        require(tokenWhitelist[_tokenAddress]); // Token must be whitelisted first\n\n        // Get the token\n        AnasToken token = AnasToken(1000000);\n\n        uint tokensToReturn = 0;\n\n        for (uint i =0; i<airdroppedTokens[_tokenAddress].length; i++){\n            TokenAirdrop storage ta = airdroppedTokens[_tokenAddress][i];\n            if(msg.sender == ta.tokenOwner &&\n                airdropHasExpired(_tokenAddress,i)){\n\n                tokensToReturn = tokensToReturn.add(ta.tokenBalance);\n                ta.tokenBalance = 0;\n            }\n        }\n        require(token.transfer(msg.sender,tokensToReturn));\n        emit E_TokensWithdrawn(_tokenAddress,msg.sender,tokensToReturn,now);\n\n    }\n\n    /////////////////////\n    // User functions\n    /////////////////////\n\n    /**\n     * @dev user can signup to the Airdrop Central to receive token airdrops\n     * Airdrops made before the user registration won't be available to them.\n     */\n    function signUpForAirdrops() public ifNotPaused{\n        require(signups[msg.sender].userAddress == address(0));\n        signups[msg.sender] = User(msg.sender,now);\n        userSignupCount++;\n\n        emit E_Signup(msg.sender,now);\n    }\n\n    /**\n     * @dev removes user from airdrop list.\n     * Beware that token distribution for existing airdrops won't change.\n     * For example: if 100 tokens were to be distributed to 10 people (10 each).\n     * if one quitted from the list, the other 9 will still get 10 each.\n     * @notice WARNING: Quiting from the airdrop central will make you lose\n     * tokens not yet withdrawn. Make sure to withdraw all pending tokens before\n     * removing yourself from this list. Signing up later will not give you the older tokens back\n     */\n    function quitFromAirdrops() public ifNotPaused{\n        require(signups[msg.sender].userAddress == msg.sender);\n        delete signups[msg.sender];\n        userSignupCount--;\n    }\n\n    /**\n     * @dev calculates the amount of tokens the user will be able to withdraw\n     * Given a token address, the function checks all airdrops with the same address\n     * @param _tokenAddress is the token the user wants to check his balance for\n     * @return totalTokensAvailable is the tokens calculated\n     */\n    function getTokensAvailableToMe(address _tokenAddress) view public returns (uint){\n        require(tokenWhitelist[_tokenAddress]); // Token must be whitelisted first\n\n        // Get User instance, given the sender account\n        User storage user = signups[msg.sender];\n        require(user.userAddress != address(0));\n\n        uint totalTokensAvailable= 0;\n        for (uint i =0; i<airdroppedTokens[_tokenAddress].length; i++){\n            TokenAirdrop storage ta = airdroppedTokens[_tokenAddress][i];\n\n            uint _withdrawnBalance = user.withdrawnBalances[_tokenAddress][i];\n\n            //Check that user signed up before the airdrop was done. If so, he is entitled to the tokens\n            //And the airdrop must not have expired\n            if(ta.airdropDate >= user.signupDate &&\n                now <= ta.airdropExpirationDate){\n\n                // The user will get a portion of the total tokens airdroped,\n                // divided by the users at the moment the airdrop was created\n                uint tokensAvailable = ta.totalDropped.div(ta.usersAtDate);\n\n                // if the user has not alreay withdrawn the tokens, count them\n                if(_withdrawnBalance < tokensAvailable){\n                    totalTokensAvailable = totalTokensAvailable.add(tokensAvailable);\n\n                }\n            }\n        }\n        return totalTokensAvailable;\n    }\n\n    /**\n     * @dev calculates and withdraws the amount of tokens the user has been awarded by airdrops\n     * Given a token address, the function checks all airdrops with the same\n     * address and withdraws the corresponding tokens for the user.\n     * @param _tokenAddress is the token the user wants to check his balance for\n     */\n    function withdrawTokens(address _tokenAddress) ifNotPaused public {\n        require(tokenWhitelist[_tokenAddress]); // Token must be whitelisted first\n\n        // Get User instance, given the sender account\n        User storage user = signups[msg.sender];\n        require(user.userAddress != address(0));\n\n        uint totalTokensToTransfer = 0;\n        // For each airdrop made for this token (token owner may have done several airdrops at any given point)\n        for (uint i =0; i<airdroppedTokens[_tokenAddress].length; i++){\n            TokenAirdrop storage ta = airdroppedTokens[_tokenAddress][i];\n\n            uint _withdrawnBalance = user.withdrawnBalances[_tokenAddress][i];\n\n            //Check that user signed up before the airdrop was done. If so, he is entitled to the tokens\n            //And the airdrop must not have expired\n            if(ta.airdropDate >= user.signupDate &&\n                now <= ta.airdropExpirationDate){\n\n                // The user will get a portion of the total tokens airdroped,\n                // divided by the users at the moment the airdrop was created\n                uint tokensToTransfer = ta.totalDropped.div(ta.usersAtDate);\n\n                // if the user has not alreay withdrawn the tokens\n                if(_withdrawnBalance < tokensToTransfer){\n                    // Register the tokens withdrawn by the user and total tokens withdrawn\n                    user.withdrawnBalances[_tokenAddress][i] = tokensToTransfer;\n                    ta.tokenBalance = ta.tokenBalance.sub(tokensToTransfer);\n                    totalTokensToTransfer = totalTokensToTransfer.add(tokensToTransfer);\n\n                }\n            }\n        }\n        // Get the token\n        AnasToken token=AnasToken(1000000);\n        // Transfer tokens from all airdrops that correspond to this user\n        require(token.transfer(msg.sender,totalTokensToTransfer));\n\n        emit E_TokensWithdrawn(_tokenAddress,msg.sender,totalTokensToTransfer,now);\n    }\n\n    function airdropsCount() public view returns (uint){\n        return airdrops.length;\n    }\n\n    function getAddress() public view returns (address){\n      return address(this);\n    }\n\n    function airdropHasExpired(address _tokenAddress, uint _id) public view returns (bool){\n        TokenAirdrop storage ta = airdroppedTokens[_tokenAddress][_id];\n        return (now > ta.airdropExpirationDate);\n    }\n}",
  "sourcePath": "/Users/anas/Desktop/ESILV_A5/Ethereum-td2/contracts/AirDropToken.sol",
  "compiler": {
    "name": "solc",
    "version": "0.5.12+commit.7709ece9.Emscripten.clang"
  },
  "schemaVersion": "3.0.19",
  "updatedAt": "2019-11-24T11:22:05.601Z",
  "devdoc": {
    "methods": {
      "airdropTokens(address,uint256,uint256)": {
        "details": "Transfers tokens to contract and sets the Token Airdrop",
        "params": {
          "_expirationTime": "is in how many seconds will the airdrop expire from now user should first know how many users are signed to know final approximate distribution",
          "_tokenAddress": "is the address of the token",
          "_totalTokensToDistribute": "is the tokens that will be evenly distributed among all current users Enter the number of tokens (the function multiplies by the token decimals)"
        }
      },
      "approveSubmission(address,address)": {
        "details": "approves a given token and account address to make it available for airdrop This is necessary to avoid malicious contracts to be added.",
        "params": {
          "_airdropper": "is the account to add to the whitelist",
          "_tokenAddress": "is the token address to add to the whitelist"
        }
      },
      "getTokensAvailableToMe(address)": {
        "details": "calculates the amount of tokens the user will be able to withdraw Given a token address, the function checks all airdrops with the same address",
        "params": {
          "_tokenAddress": "is the token the user wants to check his balance for"
        },
        "return": "totalTokensAvailable is the tokens calculated"
      },
      "quitFromAirdrops()": {
        "details": "removes user from airdrop list. Beware that token distribution for existing airdrops won't change. For example: if 100 tokens were to be distributed to 10 people (10 each). if one quitted from the list, the other 9 will still get 10 each."
      },
      "removeFromBlacklist(address,address)": {
        "details": "removes a token and/or account from the blacklist to allow them to submit a token again.",
        "params": {
          "_airdropper": "is the account to remove from blacklist",
          "_tokenAddress": "is the token address to remove from blacklist"
        }
      },
      "returnTokensToAirdropper(address)": {
        "details": "returns unclaimed tokens to the airdropper after the airdrop expires",
        "params": {
          "_tokenAddress": "is the address of the token"
        }
      },
      "revokeSubmission(address,address)": {
        "details": "removes token and airdropper from whitelist. Also adds them to a blacklist to prevent further submissions of any To be used in case of an emgency where the owner failed to detect a problem with the address submitted.",
        "params": {
          "_airdropper": "is the account to add to the blacklist and remove from whitelist",
          "_tokenAddress": "is the token address to add to the blacklist and remove from whitelist"
        }
      },
      "setAdmin(address,bool)": {
        "details": "allows owner to grant/revoke admin privileges to other accounts",
        "params": {
          "_admin": "is the account to be granted/revoked admin privileges",
          "isAdmin": "is whether or not to grant or revoke privileges."
        }
      },
      "setPaused(bool)": {
        "details": "pause or unpause the contract in case a problem is detected"
      },
      "signUpForAirdrops()": {
        "details": "user can signup to the Airdrop Central to receive token airdrops Airdrops made before the user registration won't be available to them."
      },
      "signupUsersManually(address)": {
        "details": "allows admins to add users to the list manually Use to add people who explicitely asked to be added..."
      },
      "withdrawTokens(address)": {
        "details": "calculates and withdraws the amount of tokens the user has been awarded by airdrops Given a token address, the function checks all airdrops with the same address and withdraws the corresponding tokens for the user.",
        "params": {
          "_tokenAddress": "is the token the user wants to check his balance for"
        }
      }
    }
  },
  "userdoc": {
    "methods": {
      "airdropTokens(address,uint256,uint256)": {
        "notice": "Before calling this function, you must have given the Airdrop Central an allowance of the tokens to distribute. Call approve([this contract's address],_totalTokensToDistribute); on the AnasToken token cotnract first"
      },
      "quitFromAirdrops()": {
        "notice": "WARNING: Quiting from the airdrop central will make you lose tokens not yet withdrawn. Make sure to withdraw all pending tokens before removing yourself from this list. Signing up later will not give you the older tokens back"
      }
    }
  }
}