{
  "contractName": "AnasToken",
  "abi": [
    {
      "inputs": [
        {
          "internalType": "uint256",
          "name": "_initialSupply",
          "type": "uint256"
        }
      ],
      "payable": false,
      "stateMutability": "nonpayable",
      "type": "constructor"
    },
    {
      "constant": true,
      "inputs": [
        {
          "internalType": "address",
          "name": "",
          "type": "address"
        }
      ],
      "name": "balanceOf",
      "outputs": [
        {
          "internalType": "uint256",
          "name": "",
          "type": "uint256"
        }
      ],
      "payable": false,
      "stateMutability": "view",
      "type": "function"
    },
    {
      "constant": true,
      "inputs": [],
      "name": "decimals",
      "outputs": [
        {
          "internalType": "uint8",
          "name": "",
          "type": "uint8"
        }
      ],
      "payable": false,
      "stateMutability": "view",
      "type": "function"
    },
    {
      "constant": true,
      "inputs": [],
      "name": "name",
      "outputs": [
        {
          "internalType": "string",
          "name": "",
          "type": "string"
        }
      ],
      "payable": false,
      "stateMutability": "view",
      "type": "function"
    },
    {
      "constant": true,
      "inputs": [],
      "name": "ticker",
      "outputs": [
        {
          "internalType": "string",
          "name": "",
          "type": "string"
        }
      ],
      "payable": false,
      "stateMutability": "view",
      "type": "function"
    },
    {
      "constant": true,
      "inputs": [],
      "name": "totalSupply",
      "outputs": [
        {
          "internalType": "uint256",
          "name": "",
          "type": "uint256"
        }
      ],
      "payable": false,
      "stateMutability": "view",
      "type": "function"
    }
  ],
  "bytecode": "0x60806040526040518060400160405280600981526020017f416e6173546f6b656e00000000000000000000000000000000000000000000008152506001908051906020019061004f929190610149565b506040518060400160405280600381526020017f414e4100000000000000000000000000000000000000000000000000000000008152506002908051906020019061009b929190610149565b506000600360006101000a81548160ff021916908360ff1602179055503480156100c457600080fd5b5060405161059b38038061059b833981810160405260208110156100e757600080fd5b810190808051906020019092919050505080600460003373ffffffffffffffffffffffffffffffffffffffff1673ffffffffffffffffffffffffffffffffffffffff1681526020019081526020016000208190555080600081905550506101ee565b828054600181600116156101000203166002900490600052602060002090601f016020900481019282601f1061018a57805160ff19168380011785556101b8565b828001600101855582156101b8579182015b828111156101b757825182559160200191906001019061019c565b5b5090506101c591906101c9565b5090565b6101eb91905b808211156101e75760008160009055506001016101cf565b5090565b90565b61039e806101fd6000396000f3fe608060405234801561001057600080fd5b50600436106100575760003560e01c806306fdde031461005c57806318160ddd146100df578063313ce567146100fd57806370a08231146101215780638ba47bdd14610179575b600080fd5b6100646101fc565b6040518080602001828103825283818151815260200191508051906020019080838360005b838110156100a4578082015181840152602081019050610089565b50505050905090810190601f1680156100d15780820380516001836020036101000a031916815260200191505b509250505060405180910390f35b6100e761029a565b6040518082815260200191505060405180910390f35b6101056102a0565b604051808260ff1660ff16815260200191505060405180910390f35b6101636004803603602081101561013757600080fd5b81019080803573ffffffffffffffffffffffffffffffffffffffff1690602001909291905050506102b3565b6040518082815260200191505060405180910390f35b6101816102cb565b6040518080602001828103825283818151815260200191508051906020019080838360005b838110156101c15780820151818401526020810190506101a6565b50505050905090810190601f1680156101ee5780820380516001836020036101000a031916815260200191505b509250505060405180910390f35b60018054600181600116156101000203166002900480601f0160208091040260200160405190810160405280929190818152602001828054600181600116156101000203166002900480156102925780601f1061026757610100808354040283529160200191610292565b820191906000526020600020905b81548152906001019060200180831161027557829003601f168201915b505050505081565b60005481565b600360009054906101000a900460ff1681565b60046020528060005260406000206000915090505481565b60028054600181600116156101000203166002900480601f0160208091040260200160405190810160405280929190818152602001828054600181600116156101000203166002900480156103615780601f1061033657610100808354040283529160200191610361565b820191906000526020600020905b81548152906001019060200180831161034457829003601f168201915b50505050508156fea265627a7a723158209dd915e8cf1c67eff823e2c45d428c3f8263716863144e06c3448ee4b92e762b64736f6c634300050c0032",
  "source": "pragma solidity >=0.4.21 <0.6.0;\ncontract AnasToken {\n//Constructor \n//Set the total number of tokens \n//Read the total of tokens\nuint256 public totalSupply;\n//Name\nstring public name= \"AnasToken\";\n//Ticker\nstring public ticker=\"ANA\";\n//Decimal number\n uint8 public decimals=0;\n\n\nmapping(address => uint256) public balanceOf; //declaring a mapping for balance field\n    constructor(uint256 _initialSupply) public {\n        // allocate the initiale supply\n        balanceOf[msg.sender]= _initialSupply;\n        totalSupply = _initialSupply;    // all existing tokens \n}\n\n} ",
  "sourcePath": "/Users/anas/Desktop/ESILV_A5/Ethereum-td2/contracts/AnasToken.sol",
  "compiler": {
    "name": "solc",
    "version": "0.5.12+commit.7709ece9.Emscripten.clang"
  },
  "schemaVersion": "3.0.19",
  "updatedAt": "2019-11-22T10:13:28.122Z",
  "devdoc": {
    "methods": {}
  },
  "userdoc": {
    "methods": {}
  }
}