{
  "contractName": "AnasToken",
  "abi": [
    {
      "inputs": [
        {
          "internalType": "uint256",
          "name": "_initialSupply",
          "type": "uint256"
        }
      ],
      "payable": false,
      "stateMutability": "nonpayable",
      "type": "constructor"
    },
    {
      "anonymous": false,
      "inputs": [
        {
          "indexed": true,
          "internalType": "address",
          "name": "_owner",
          "type": "address"
        },
        {
          "indexed": true,
          "internalType": "address",
          "name": "_spender",
          "type": "address"
        },
        {
          "indexed": false,
          "internalType": "uint256",
          "name": "_value",
          "type": "uint256"
        }
      ],
      "name": "Approval",
      "type": "event"
    },
    {
      "anonymous": false,
      "inputs": [
        {
          "indexed": true,
          "internalType": "address",
          "name": "_from",
          "type": "address"
        },
        {
          "indexed": true,
          "internalType": "address",
          "name": "_to",
          "type": "address"
        },
        {
          "indexed": false,
          "internalType": "uint256",
          "name": "_value",
          "type": "uint256"
        }
      ],
      "name": "Transfer",
      "type": "event"
    },
    {
      "constant": true,
      "inputs": [
        {
          "internalType": "address",
          "name": "",
          "type": "address"
        },
        {
          "internalType": "address",
          "name": "",
          "type": "address"
        }
      ],
      "name": "allowance",
      "outputs": [
        {
          "internalType": "uint256",
          "name": "",
          "type": "uint256"
        }
      ],
      "payable": false,
      "stateMutability": "view",
      "type": "function"
    },
    {
      "constant": true,
      "inputs": [
        {
          "internalType": "address",
          "name": "",
          "type": "address"
        }
      ],
      "name": "balanceOf",
      "outputs": [
        {
          "internalType": "uint256",
          "name": "",
          "type": "uint256"
        }
      ],
      "payable": false,
      "stateMutability": "view",
      "type": "function"
    },
    {
      "constant": true,
      "inputs": [],
      "name": "decimals",
      "outputs": [
        {
          "internalType": "uint8",
          "name": "",
          "type": "uint8"
        }
      ],
      "payable": false,
      "stateMutability": "view",
      "type": "function"
    },
    {
      "constant": true,
      "inputs": [],
      "name": "foundationPercentage",
      "outputs": [
        {
          "internalType": "uint256",
          "name": "",
          "type": "uint256"
        }
      ],
      "payable": false,
      "stateMutability": "view",
      "type": "function"
    },
    {
      "constant": true,
      "inputs": [],
      "name": "foundersPourcentage",
      "outputs": [
        {
          "internalType": "uint256",
          "name": "",
          "type": "uint256"
        }
      ],
      "payable": false,
      "stateMutability": "view",
      "type": "function"
    },
    {
      "constant": true,
      "inputs": [],
      "name": "goal",
      "outputs": [
        {
          "internalType": "uint256",
          "name": "",
          "type": "uint256"
        }
      ],
      "payable": false,
      "stateMutability": "view",
      "type": "function"
    },
    {
      "constant": true,
      "inputs": [],
      "name": "name",
      "outputs": [
        {
          "internalType": "string",
          "name": "",
          "type": "string"
        }
      ],
      "payable": false,
      "stateMutability": "view",
      "type": "function"
    },
    {
      "constant": true,
      "inputs": [],
      "name": "partenersPercentage",
      "outputs": [
        {
          "internalType": "uint256",
          "name": "",
          "type": "uint256"
        }
      ],
      "payable": false,
      "stateMutability": "view",
      "type": "function"
    },
    {
      "constant": true,
      "inputs": [],
      "name": "ticker",
      "outputs": [
        {
          "internalType": "string",
          "name": "",
          "type": "string"
        }
      ],
      "payable": false,
      "stateMutability": "view",
      "type": "function"
    },
    {
      "constant": true,
      "inputs": [],
      "name": "tokenSalePercentage",
      "outputs": [
        {
          "internalType": "uint256",
          "name": "",
          "type": "uint256"
        }
      ],
      "payable": false,
      "stateMutability": "view",
      "type": "function"
    },
    {
      "constant": true,
      "inputs": [],
      "name": "totalSupply",
      "outputs": [
        {
          "internalType": "uint256",
          "name": "",
          "type": "uint256"
        }
      ],
      "payable": false,
      "stateMutability": "view",
      "type": "function"
    },
    {
      "constant": true,
      "inputs": [],
      "name": "weiRaised",
      "outputs": [
        {
          "internalType": "uint256",
          "name": "",
          "type": "uint256"
        }
      ],
      "payable": false,
      "stateMutability": "view",
      "type": "function"
    },
    {
      "constant": false,
      "inputs": [
        {
          "internalType": "address",
          "name": "_to",
          "type": "address"
        },
        {
          "internalType": "uint256",
          "name": "_value",
          "type": "uint256"
        }
      ],
      "name": "transfer",
      "outputs": [
        {
          "internalType": "bool",
          "name": "success",
          "type": "bool"
        }
      ],
      "payable": false,
      "stateMutability": "nonpayable",
      "type": "function"
    },
    {
      "constant": false,
      "inputs": [
        {
          "internalType": "address",
          "name": "_spender",
          "type": "address"
        },
        {
          "internalType": "uint256",
          "name": "_value",
          "type": "uint256"
        }
      ],
      "name": "approve",
      "outputs": [
        {
          "internalType": "bool",
          "name": "success",
          "type": "bool"
        }
      ],
      "payable": false,
      "stateMutability": "nonpayable",
      "type": "function"
    },
    {
      "constant": false,
      "inputs": [
        {
          "internalType": "address",
          "name": "_from",
          "type": "address"
        },
        {
          "internalType": "address",
          "name": "_to",
          "type": "address"
        },
        {
          "internalType": "uint256",
          "name": "_value",
          "type": "uint256"
        }
      ],
      "name": "transferFrom",
      "outputs": [
        {
          "internalType": "bool",
          "name": "success",
          "type": "bool"
        }
      ],
      "payable": false,
      "stateMutability": "nonpayable",
      "type": "function"
    },
    {
      "constant": true,
      "inputs": [],
      "name": "goalReached",
      "outputs": [
        {
          "internalType": "bool",
          "name": "",
          "type": "bool"
        }
      ],
      "payable": false,
      "stateMutability": "view",
      "type": "function"
    }
  ],
  "bytecode": "0x60806040526040518060400160405280600981526020017f416e6173546f6b656e00000000000000000000000000000000000000000000008152506001908051906020019061004f929190610166565b506040518060400160405280600381526020017f414e4100000000000000000000000000000000000000000000000000000000008152506002908051906020019061009b929190610166565b506000600360006101000a81548160ff021916908360ff1602179055506046600655600a600755600a600855600a600955600a8055600a600b553480156100e157600080fd5b50604051610e0d380380610e0d8339818101604052602081101561010457600080fd5b810190808051906020019092919050505080600460003373ffffffffffffffffffffffffffffffffffffffff1673ffffffffffffffffffffffffffffffffffffffff16815260200190815260200160002081905550806000819055505061020b565b828054600181600116156101000203166002900490600052602060002090601f016020900481019282601f106101a757805160ff19168380011785556101d5565b828001600101855582156101d5579182015b828111156101d45782518255916020019190600101906101b9565b5b5090506101e291906101e6565b5090565b61020891905b808211156102045760008160009055506001016101ec565b5090565b90565b610bf38061021a6000396000f3fe608060405234801561001057600080fd5b50600436106101005760003560e01c80636532e1f6116100975780638ba47bdd116100665780638ba47bdd146103c6578063a9059cbb14610449578063ab62a75e146104af578063dd62ed3e146104cd57610100565b80636532e1f61461031057806370a082311461032e5780637d3d652214610386578063864329e3146103a857610100565b8063313ce567116100d3578063313ce5671461029257806340193883146102b65780634042b66f146102d457806346daa242146102f257610100565b806306fdde0314610105578063095ea7b31461018857806318160ddd146101ee57806323b872dd1461020c575b600080fd5b61010d610545565b6040518080602001828103825283818151815260200191508051906020019080838360005b8381101561014d578082015181840152602081019050610132565b50505050905090810190601f16801561017a5780820380516001836020036101000a031916815260200191505b509250505060405180910390f35b6101d46004803603604081101561019e57600080fd5b81019080803573ffffffffffffffffffffffffffffffffffffffff169060200190929190803590602001909291905050506105e3565b604051808215151515815260200191505060405180910390f35b6101f66106d5565b6040518082815260200191505060405180910390f35b6102786004803603606081101561022257600080fd5b81019080803573ffffffffffffffffffffffffffffffffffffffff169060200190929190803573ffffffffffffffffffffffffffffffffffffffff169060200190929190803590602001909291905050506106db565b604051808215151515815260200191505060405180910390f35b61029a610946565b604051808260ff1660ff16815260200191505060405180910390f35b6102be610959565b6040518082815260200191505060405180910390f35b6102dc61095f565b6040518082815260200191505060405180910390f35b6102fa610965565b6040518082815260200191505060405180910390f35b61031861096b565b6040518082815260200191505060405180910390f35b6103706004803603602081101561034457600080fd5b81019080803573ffffffffffffffffffffffffffffffffffffffff169060200190929190505050610971565b6040518082815260200191505060405180910390f35b61038e610989565b604051808215151515815260200191505060405180910390f35b6103b0610998565b6040518082815260200191505060405180910390f35b6103ce61099e565b6040518080602001828103825283818151815260200191508051906020019080838360005b8381101561040e5780820151818401526020810190506103f3565b50505050905090810190601f16801561043b5780820380516001836020036101000a031916815260200191505b509250505060405180910390f35b6104956004803603604081101561045f57600080fd5b81019080803573ffffffffffffffffffffffffffffffffffffffff16906020019092919080359060200190929190505050610a3c565b604051808215151515815260200191505060405180910390f35b6104b7610b93565b6040518082815260200191505060405180910390f35b61052f600480360360408110156104e357600080fd5b81019080803573ffffffffffffffffffffffffffffffffffffffff169060200190929190803573ffffffffffffffffffffffffffffffffffffffff169060200190929190505050610b99565b6040518082815260200191505060405180910390f35b60018054600181600116156101000203166002900480601f0160208091040260200160405190810160405280929190818152602001828054600181600116156101000203166002900480156105db5780601f106105b0576101008083540402835291602001916105db565b820191906000526020600020905b8154815290600101906020018083116105be57829003601f168201915b505050505081565b600081600560003373ffffffffffffffffffffffffffffffffffffffff1673ffffffffffffffffffffffffffffffffffffffff16815260200190815260200160002060008573ffffffffffffffffffffffffffffffffffffffff1673ffffffffffffffffffffffffffffffffffffffff168152602001908152602001600020819055508273ffffffffffffffffffffffffffffffffffffffff163373ffffffffffffffffffffffffffffffffffffffff167f8c5be1e5ebec7d5bd14f71427d1e84f3dd0314c0f7b2291e5b200ac8c7c3b925846040518082815260200191505060405180910390a36001905092915050565b60005481565b6000600460008573ffffffffffffffffffffffffffffffffffffffff1673ffffffffffffffffffffffffffffffffffffffff1681526020019081526020016000205482111561072957600080fd5b600560008573ffffffffffffffffffffffffffffffffffffffff1673ffffffffffffffffffffffffffffffffffffffff16815260200190815260200160002060003373ffffffffffffffffffffffffffffffffffffffff1673ffffffffffffffffffffffffffffffffffffffff168152602001908152602001600020548211156107b257600080fd5b81600460008673ffffffffffffffffffffffffffffffffffffffff1673ffffffffffffffffffffffffffffffffffffffff1681526020019081526020016000206000828254039250508190555081600460008573ffffffffffffffffffffffffffffffffffffffff1673ffffffffffffffffffffffffffffffffffffffff1681526020019081526020016000206000828254019250508190555081600560008673ffffffffffffffffffffffffffffffffffffffff1673ffffffffffffffffffffffffffffffffffffffff16815260200190815260200160002060003373ffffffffffffffffffffffffffffffffffffffff1673ffffffffffffffffffffffffffffffffffffffff168152602001908152602001600020600082825403925050819055508273ffffffffffffffffffffffffffffffffffffffff168473ffffffffffffffffffffffffffffffffffffffff167fddf252ad1be2c89b69c2b068fc378daa952ba7f163c4a11628f55a4df523b3ef846040518082815260200191505060405180910390a3600190509392505050565b600360009054906101000a900460ff1681565b600a5481565b600b5481565b60065481565b60095481565b60046020528060005260406000206000915090505481565b6000600a54600b541015905090565b60085481565b60028054600181600116156101000203166002900480601f016020809104026020016040519081016040528092919081815260200182805460018160011615610100020316600290048015610a345780601f10610a0957610100808354040283529160200191610a34565b820191906000526020600020905b815481529060010190602001808311610a1757829003601f168201915b505050505081565b600081600460003373ffffffffffffffffffffffffffffffffffffffff1673ffffffffffffffffffffffffffffffffffffffff168152602001908152602001600020541015610a8a57600080fd5b81600460003373ffffffffffffffffffffffffffffffffffffffff1673ffffffffffffffffffffffffffffffffffffffff1681526020019081526020016000206000828254039250508190555081600460008573ffffffffffffffffffffffffffffffffffffffff1673ffffffffffffffffffffffffffffffffffffffff168152602001908152602001600020600082825401925050819055508273ffffffffffffffffffffffffffffffffffffffff163373ffffffffffffffffffffffffffffffffffffffff167fddf252ad1be2c89b69c2b068fc378daa952ba7f163c4a11628f55a4df523b3ef846040518082815260200191505060405180910390a36001905092915050565b60075481565b600560205281600052604060002060205280600052604060002060009150915050548156fea265627a7a7231582088e864c7948181e9c68fdc41e5a8aaacec2387a4c274bcc903a875c42d25d65d64736f6c634300050c0032",
  "source": "pragma solidity >=0.4.21 <0.6.0;\nimport \"./MintableToken.sol\";\nimport \"./TokenTimelock.sol\";\nimport \"./PausableToken.sol\";\ncontract AnasToken {\n//Constructor \n//Set the total number of tokens \n//Read the total of tokens\nuint256 public totalSupply; \n//Name\nstring public name= \"AnasToken\";\n//Ticker\nstring public ticker=\"ANA\";\n//Decimal number\n uint8 public decimals=0;\n//declaring a mapping for balance field\nmapping(address => uint256) public balanceOf; \n//Nested mapping for allowance fielc\nmapping(address => mapping(address => uint256))public allowance;\n\n\n//Token Distribution\nuint256 public tokenSalePercentage =70;\nuint256 public foundersPourcentage =10;\nuint256 public foundationPercentage =10;\nuint256 public partenersPercentage =10;\n// minimum amount of funds to be raised in weis\nuint public goal=10;\n// Amount of wei raised\nuint256 public weiRaised=10;\n//Transfer Event\n event Transfer(\n     address indexed _from,\n     address indexed _to,\n     uint256 _value\n );\n\n //approve Event\n event Approval(\n     address indexed _owner,\n     address indexed _spender,\n     uint256 _value\n );\n\n    constructor(uint256 _initialSupply) public {\n        // allocate the initiale supply\n        balanceOf[msg.sender]= _initialSupply;\n        totalSupply = _initialSupply;    // all existing tokens \n} \n\n//Transfer\nfunction transfer(address _to, uint256 _value)public returns(bool success){\n    //Exception if account doesn't have enough token to transfer\n    require(balanceOf[msg.sender] >= _value);\n    //Transfer the balance\n    balanceOf[msg.sender] -= _value;\n    balanceOf[_to] += _value;\n    //Transfer Event ( declaring the event in the begining) \n    emit Transfer(msg.sender, _to, _value);\n    // Return a true boolean \n    return true;  \n}\n//Approve function\nfunction approve(address _spender, uint256 _value) public returns(bool success){\n    //allownance\n    allowance[msg.sender][_spender] = _value;\n    //Approve event\n    emit Approval(msg.sender, _spender, _value);\n    return true;\n}\n\n//TransferFrom function \nfunction transferFrom(address _from,address _to, uint256 _value)public returns(bool success){\n    //Require _from has enough tokens \n     require(_value <= balanceOf[_from]); \n    //Requife allowance is big enough\n    require(_value <= allowance[_from][msg.sender]);\n    //Change the balance\n    balanceOf[_from] -= _value;\n    balanceOf[_to] += _value;\n    //Update the allowance\n    allowance[_from][msg.sender] -= _value;\n    //Transfer event \n    emit Transfer(_from, _to, _value);\n    return true;\n}\n\nfunction _preValidatePurchase(address beneficiary, uint256 weiAmount) internal view {\n        require(beneficiary != address(0), \"Crowdsale: beneficiary is the zero address\");\n        require(weiAmount != 0, \"Crowdsale: weiAmount is 0\");\n        this; // silence state mutability warning without generating bytecode - see https://github.com/ethereum/solidity/issues/2691\n    }\n\n /**\n   * @dev enables token transfers, called when owner calls finalize()\n  */\n  /*function finalization() internal {\n    if(goalReached()) {\n      MintableToken _mintableToken = MintableToken(token);\n      uint256 _alreadyMinted = _mintableToken.totalSupply();\n\n      uint256 _finalTotalSupply = _alreadyMinted.div(tokenSalePercentage).mul(100);\n\n      foundersTimelock= new TokenTimelock(token, foundersFund, releaseTime);\n      foundationTimelock= new TokenTimelock(token, foundationFund, releaseTime);\n      partnersTimelock = new TokenTimelock(token, partnersFund, releaseTime);\n\n      _mintableToken.mint(address(foundersTimelock),   _finalTotalSupply.mul(foundersPercentage).div(100));\n      _mintableToken.mint(address(foundationTimelock), _finalTotalSupply.mul(foundationPercentage).div(100));\n      _mintableToken.mint(address(partnersTimelock),   _finalTotalSupply.mul(partnersPercentage).div(100));\n\n      _mintableToken.finishMinting();\n      // Unpause the token\n      PausableToken _pausableToken = PausableToken(token);\n      _pausableToken.unpause();\n      _pausableToken.transferOwnership(wallet);\n    }\n\n    super.finalization();\n  } */\n\n  function goalReached() public view returns (bool) {\n        return weiRaised >= goal;\n    }\n\n\n\n} ",
  "sourcePath": "/Users/anas/Desktop/ESILV_A5/Ethereum-td2/contracts/AnasToken.sol",
  "compiler": {
    "name": "solc",
    "version": "0.5.12+commit.7709ece9.Emscripten.clang"
  },
  "schemaVersion": "3.0.19",
  "updatedAt": "2019-11-23T23:35:02.950Z",
  "devdoc": {
    "methods": {
      "goalReached()": {
        "details": "enables token transfers, called when owner calls finalize()"
      }
    }
  },
  "userdoc": {
    "methods": {}
  }
}