{
  "contractName": "TokenTimelock",
  "abi": [
    {
      "inputs": [
        {
          "internalType": "contract ERC20Basic",
          "name": "_token",
          "type": "address"
        },
        {
          "internalType": "address",
          "name": "_beneficiary",
          "type": "address"
        },
        {
          "internalType": "uint64",
          "name": "_releaseTime",
          "type": "uint64"
        }
      ],
      "payable": false,
      "stateMutability": "nonpayable",
      "type": "constructor"
    },
    {
      "constant": true,
      "inputs": [],
      "name": "beneficiary",
      "outputs": [
        {
          "internalType": "address",
          "name": "",
          "type": "address"
        }
      ],
      "payable": false,
      "stateMutability": "view",
      "type": "function"
    },
    {
      "constant": true,
      "inputs": [],
      "name": "releaseTime",
      "outputs": [
        {
          "internalType": "uint64",
          "name": "",
          "type": "uint64"
        }
      ],
      "payable": false,
      "stateMutability": "view",
      "type": "function"
    }
  ],
  "bytecode": "0x608060405234801561001057600080fd5b5060405161024e38038061024e8339818101604052606081101561003357600080fd5b81019080805190602001909291908051906020019092919080519060200190929190505050428167ffffffffffffffff161161006e57600080fd5b826000806101000a81548173ffffffffffffffffffffffffffffffffffffffff021916908373ffffffffffffffffffffffffffffffffffffffff16021790555081600160006101000a81548173ffffffffffffffffffffffffffffffffffffffff021916908373ffffffffffffffffffffffffffffffffffffffff16021790555080600160146101000a81548167ffffffffffffffff021916908367ffffffffffffffff1602179055505050506101248061012a6000396000f3fe6080604052348015600f57600080fd5b506004361060325760003560e01c806338af3eed146037578063b91d400114607f575b600080fd5b603d60af565b604051808273ffffffffffffffffffffffffffffffffffffffff1673ffffffffffffffffffffffffffffffffffffffff16815260200191505060405180910390f35b608560d5565b604051808267ffffffffffffffff1667ffffffffffffffff16815260200191505060405180910390f35b600160009054906101000a900473ffffffffffffffffffffffffffffffffffffffff1681565b600160149054906101000a900467ffffffffffffffff168156fea265627a7a72315820aea1a4ce1c021c86fb6d4b1c867e78568fb879ded1b22bd741439e3690a70c4b64736f6c634300050c0032",
  "source": "\npragma solidity >=0.4.21 <0.6.0;\nimport \"./ERC20Basic.sol\";\n/**\n * @title TokenTimelock\n * @dev TokenTimelock is a token holder contract that will allow a\n * beneficiary to extract the tokens after a given release time\n */\ncontract TokenTimelock { //is Ownable\n    // using SafeERC20 for ERC20Basic;\n\n    // ERC20 basic token contract being held\n    ERC20Basic token;\n\n    // beneficiary of tokens after they are released\n    address public beneficiary;\n\n    // timestamp when token release is enabled\n    uint64 public releaseTime;\n\n    constructor(ERC20Basic _token, address _beneficiary, uint64 _releaseTime) public {\n        require(_releaseTime > now);\n        token = _token;\n        beneficiary = _beneficiary;\n        releaseTime = _releaseTime;\n    }\n\n\n}",
  "sourcePath": "/Users/anas/Desktop/ESILV_A5/Ethereum-td2/contracts/TokenTimeLock.sol",
  "compiler": {
    "name": "solc",
    "version": "0.5.12+commit.7709ece9.Emscripten.clang"
  },
  "schemaVersion": "3.0.19",
  "updatedAt": "2019-11-23T23:35:02.958Z",
  "devdoc": {
    "details": "TokenTimelock is a token holder contract that will allow a beneficiary to extract the tokens after a given release time",
    "methods": {},
    "title": "TokenTimelock"
  },
  "userdoc": {
    "methods": {}
  }
}